:020000040000FA
:10000000A0040020010200001502000017020000F9
:10001000190200001902000019020000000000008F
:1000200000000000000000000000000019020000B5
:10003000190200000000000019020000A10C0000DD
:100040001902000019020000190200001902000044
:1000500019020000310E0000190200001902000010
:100060001902000019020000190200001902000024
:1000700019020000190200008502000019020000A8
:100080001902000019020000190200001902000004
:1000900019020000190200001902000019020000F4
:1000A00019020000190200001902000019020000E4
:1000B00019020000190200001902000019020000D4
:1000C00019020000190200001902000019020000C4
:1000D00019020000190200001902000019020000B4
:1000E00019020000190200001902000019020000A4
:1000F0001902000019020000190200001902000094
:100100001902000019020000190200001902000083
:100110001902000019020000190200001902000073
:10012000A10D00001902000019020000E90D0000F5
:100130001902000019020000190200001902000053
:100140001902000019020000190200001902000043
:100150000000000000000000190200001902000069
:10016000190200001902000000000000190200003E
:100170001902000019020000190200001902000013
:100180001902000019020000190200001902000003
:1001900019020000190200001902000019020000F3
:1001A00019020000190200001902000019020000E3
:1001B00019020000190200001902000019020000D3
:1001C00019020000190200001902000019020000C3
:1001D00019020000190200001902000019020000B3
:1001E00019020000190200001902000019020000A3
:1001F0001902000019020000190200001902000093
:100200004EF68850CEF20000016841F470010160A2
:1002100000F004B8FEE7FEE7FEE70000DFF80CD0D0
:1002200000F01EF80048004705140000A00400205C
:100230000138FDD170470000EFF3108072B67047AF
:10024000EFF310807047EFF3108062B6704730BF55
:10025000704780F311887047EFF3118070470000FA
:10026000064C074D06E0E06840F0010394E8070003
:1002700098471034AC42F6D3FFF7D4FF14200000A7
:100280003420000010B5094C0021204600F012F87F
:10029000074A0021204600F057F80120FFF7C8FF69
:1002A0002046BDE81040002100F011B80080034056
:1002B000E0000020012202FA01F1C1607047012232
:1002C00002FA01F1C16082681143816070470A46F9
:1002D00001F00F0101236FF30F0203FA01F1114343
:1002E000826A11438162704730B4446989004FF0DB
:1002F0000F0C0CFA01FC02F00F0524EA0C048D40EF
:100300002C434461046A03F0030324EA0C0C03FA4F
:1003100001F14CEA0101016202F00F018B1F032B76
:1003200084BF30BC7047C900C3694FF0300C30390E
:100330000CFA01FC02F0300223EA0C0302FA01F18C
:100340001943C16130BC704700EB411000F140011E
:10035000002003E08B6842F8043B401CCB6813F498
:10036000807F18BF70470828F4D3704702680123C4
:1003700003FA01F111430160704710B400EB411022
:10038000910050F840CF0F228A4003F00F042CEA6E
:10039000020C8C404CEA040CC0F800C0D0F818C025
:1003A000C3F303242CEA020C8C404CEA040CC0F882
:1003B00018C0D0F804C0C3F303142CEA020C8C401C
:1003C0004CEA040CC0F804C0D0F81CC0C3F30354BA
:1003D0002CEA020C8C404CEA040CC0F81CC013F44C
:1003E000702F4FF001040DD0D0F814C0C3F30243B6
:1003F0002CEA02028B401A434261026904FA01F1BD
:10040000114304E0026904FA01F122EA01010161E9
:1004100010BC704770B54FF08074606C81691148F2
:100420008847206A104D00224368032128469847D8
:100430000A2301220321284600F044F9206A0321FF
:10044000C26A2846904709490870606C816905486E
:10045000C01C8847206A0321C26BBDE87040044875
:1004600010470000080800F000D00340F000002012
:100470000030064070B504464FF080700D46006AAB
:100480000321C26A0F4890470DB1C14329700E4A3B
:100490005378957816786B4080EA0601ED43EDB20B
:1004A0000B4053700D402B43957003EA06059843AB
:1004B0002843C5B215704B4004B12370E843C0B265
:1004C00070BD000000D00340F000002030B56E4A3F
:1004D0006C495378C8545B1CD8B250700C78002318
:1004E000552C01D0537030BD0B28FCD34C78664896
:1004F000503C8030092C3CD2DFE804F0050B11178A
:100500001E242A30360051F8020FD0644868106566
:100510002FE051F8020FD0654868106629E051F8C5
:10052000020FD0664868106723E051F8020FD067C9
:100530004868C2F880001CE051F8024FC460496866
:10054000016116E051F8024FC4614968016210E090
:1005500051F8024FC462496801630AE051F8024F42
:10056000C4634968016404E051F8024FC4644968F7
:100570000165454853705C30B0F9001000EE101A68
:10058000F8EEC00A9FED410A414920EE801AF3EED1
:10059000000A21EE201A81ED001AB0F9023001EEB6
:1005A000103AB8EEC11A21EE001A21EE201A81EDA0
:1005B000011AB0F9040001EE100A3348B8EEC11A6E
:1005C0006C3021EE001A61EE200AC1ED020AB0F98A
:1005D000001000EE901A2E49F8EEE00A0C3120EEE1
:1005E000801ADFED2C0A21EE201A81ED001AB0F9F5
:1005F000023001EE103AB8EEC11A21EE001A21EED7
:10060000201A81ED011AB0F9040001EE100A1E480B
:10061000B8EEC11A7C3021EE001A61EE200A9FED7F
:100620001E1AC1ED020AB0F9001000EE901A184926
:10063000F8EEE00A183160EE800A60EE810AC1ED42
:10064000000AB0F90230F5EEC00A01EE903AF8EE79
:10065000E11A61EE801A61EE811AC1ED011AB0F95A
:10066000040001EE900AF8EEE11A21EE800A20EE75
:10067000010AF1EE10FA81ED020A3FF434AF0120D5
:10068000506130BDF400002004000020000000385C
:10069000E80200200000FA4400003443D0F800349F
:1006A00012F0010F14BF0B438B43C0F8003412F05B
:1006B000020FD0F8202414BF114322EA0101C0F830
:1006C000201470472DE9F00301264FF0000C03259C
:1006D000C2F3411706FA0CF40C4211D0D0F8C48FC3
:1006E0004FEA4C0405FA04F928EA0908C0F8C48F57
:1006F000D0F8C48F07FA04F448EA0404C0F8C44FE1
:100700000CF1010C0CF0FF0CBCF1080FE2D3D0F897
:1007100000C512F0010F14BF4CEA010C2CEA010CC9
:10072000C0F800C5D0F804C512F0020F14BF4CEA9F
:10073000010C2CEA010CC0F804C5D0F808C512F071
:10074000040F14BF4CEA010C2CEA010CC0F808C5D8
:10075000D0F818C512F0080F14BF4CEA010C2CEAAF
:10076000010CC0F818C512F0100FD0F83C2514BFCA
:100770000A438A43C0F83C25D0F80C2513F0010F3A
:1007800014BF0A438A43C0F80C25D0F8102513F093
:10079000020F14BF0A438A43C0F81025D0F814256D
:1007A00013F0040F14BF0A438A43C0F81425D0F88D
:1007B0001C2513F0080F14BF0A438A43C0F81C25F8
:1007C000D0F8442513F4007F14BF0A438A43C0F8CD
:1007D0004425D0F8402513F4407F14BF0A438A43D0
:1007E000C0F84025D0F82825002B0CBF114322EA81
:1007F0000101C0F82815BDE8F00370470E4AC0F3A8
:100800000741D26E01238B401A420C4A1ABF02EBF9
:10081000C101496852F83110020AD1F82C354FF065
:100820000F0C0CFA02FC00F00F0023EA0C039040BE
:100830001843C1F82C05704700E00F40241C00004D
:1008400030B50C4605460022FFF728FF2146284612
:10085000BDE8304000230122FFF734BF30B50C461D
:1008600005460222FFF71AFF21462846BDE8304020
:1008700008230122FFF726BF40F82120704700001F
:100880001649042804BF086840F4803018D00528B1
:1008900004BF086840F4003012D0062812D00F2898
:1008A00015D0102838BF7047103800F01F01012202
:1008B00002FA01F142090A4850F82200016070472B
:1008C00008607047086840F48020086070474FF067
:1008D000E020016941F002010161704724ED00E070
:1008E000701D000010B5FFF7AEFC002818BF0120F6
:1008F00010BDD0F8C82F40F207139A430A43C0F83E
:10090000C82F704708440168074B19401143016024
:10091000910703D5B0210162090103E08C21016236
:1009200040F60C01416270470100F8FF425842F066
:1009300001024250704708440168890702D55108F6
:1009400001617047521E02617047002A826801D01F
:100950000A4300E08A438260704721F03F03184455
:1009600003689B0700D5520803699A1AC90701D08A
:10097000C2617047826170472DE9F003AD4D0246B8
:100980002868AD4B1840A0F18053B3F5A02358D090
:1009900002F03809DFF8A482C2F38414B9F1100F11
:1009A00024D0B9F1300F04BF47F230504FF4001398
:1009B0000CD03820904304BF4FF40040C30105D051
:1009C00012F0380F1CBF0020034613D09C4F12F4C6
:1009D000605F4FF0000618BF00222CD057F832405D
:1009E00044457DD307EBC2025268DFE00023404656
:1009F0001524EBE7A4F10900122822D29148D5F87A
:100A00007CC04FF04C7350F824002CF01C0C072CC9
:100A1000A8BF4CF0100CC5F87CC02E6D4FF4002C14
:100A200016F4807FD2D1BCF1010C0AD02E6D16F4E1
:100A3000807FF8D0CAE712F0380F18BFB9F1100F55
:100A400003D0BDE8F00300207047C2F30268DFF86E
:100A5000F8C1002257F83290E14503D307EBC202F8
:100A6000526803E0521C062AF4D33246C5F8C0206F
:100A7000D5F8B020DFF8D4C102EA0C0242F00042FF
:100A8000C5F8B020DFF8C8C1A4F109024C1E5CF81B
:100A900028C0A444BCFBF1FCD5F8B0101943C5F83C
:100AA000B01008EBC80101EB41046A4902EB4202B5
:100AB00001EBC40101EB82046468C5F86441D5F818
:100AC00064416FF0FF0808EB0C2C44EA0C0CC5F8ED
:100AD00064C151F82210D5F8602102F4000200E050
:100AE0005FE01143C5F86011D5F86011D5F86021B9
:100AF000C1F38921C2F30904D5F86421C2F30422A9
:100B000002F1010CD5F8642102F01F02521CB0FB67
:100B1000F2F04A09C2F100084443424301EB481194
:100B200004EB5212484302EB9020B0FBFCF041086A
:100B30000846002257F832C0844503D307EBC200B1
:100B4000466802E0521C062AF4D3C5F8C060D5F806
:100B5000600110F4000F1DBFD5F8B00040F08040D8
:100B6000C5F8B000D5F8600104BF40F40000C5F836
:100B700060014FF40040D5F8682112F0010F02D156
:100B8000401E0028F7DC002808BF002148D0D5F817
:100B9000B000184340F0010040F01040C5F8B0002C
:100BA0003EE0521C062AFFF419AF3246C5F8C020B9
:100BB000D5F8602122F40002C5F86021D5F8B020F4
:100BC000DFF894C002EA0C0242F00042C5F8B020FF
:100BD000002908BF4FF0000C0AD0B0FBF1FCBCF1BB
:100BE000000F18BFACF1010C0CF10101B0FBF1F1E9
:100BF0000846002257F83240844203D307EBC20074
:100C0000466802E0521C062AF4D3C5F8C060D5F845
:100C1000B00043EA8C22104340F00040C5F8B00019
:100C2000D5F8B00020F47000C5F8B000BDE8F003BE
:100C30000846704700E00F400000FF700024F400F9
:100C4000E41F0000C81D000040787D0100FC0FE09B
:100C5000C01D0000341E0000FF0300EFC0F3072397
:100C60000749C0B2194401F07043C1F3130143EACC
:100C7000411141EA800040F000700122026070479B
:100C800000E60F404FF0E020016941F005010161ED
:100C900070474FF0E020016941F0020101617047A7
:100CA000F8B500216846FFF7E5FB9DF800102F4AD4
:100CB0000140C9074FF0000005D01168491C1160C0
:100CC000032900D110602A4B1968642941D12949B0
:100CD000DFF8A4C0294F0C68142C21D09CED000A29
:100CE000D7ED000A264E30EE600A10EE105AB542DB
:100CF00017DA10EE105ADFF88CE0754511D29CED32
:100D0000020AD7ED020A30EE600A10EE105AB54220
:100D100007DA10EE105A754503D2641C0C6001E02E
:100D200010600860186097ED000A17498CED000A02
:100D300097ED010A15488CED010A97ED020A8CED3A
:100D4000020A91ED000A80ED000A91ED020A80EDA1
:100D5000020A1868401C18601068002805D10C4869
:100D60000068012801D102201060F8BD3400002085
:100D7000EC000020E8000020880300200003002091
:100D800000004040000040C02403002094030020E5
:100D90002C0000204FF0E021401E48617047000009
:100DA00070B54FF080740E4D60690121C26C284609
:100DB000904701466069026D28469047094E07E05A
:100DC0006069816B28468847C0B23070FFF77EFBB0
:100DD0006069C16A284688470028F1D170BD0000CB
:100DE00000F000400000002070B54FF080740E4D00
:100DF00060690121C26C2846904701466069026D16
:100E000028469047094E07E06069816B284688476D
:100E1000C0B2707000F038FA6069C16A284688472D
:100E20000028F1D170BD000000200140000000202A
:100E300070B54FF08074184D60690121C26C28466E
:100E4000904701466069026D284690471DE01348AF
:100E50000068022819D16069816B28468847C0B2B2
:100E600000F0B8FA0E4E012211463046FFF704FD9D
:100E70000C4840F6B8310068B0FBF1F0FFF7D8F944
:100E8000002201213046FFF7F7FC6069C16A28465D
:100E900088470028DBD170BD00C00040340000202E
:100EA000004006403C0000202DE9F0410D4604467C
:100EB0004FF08076054F05E0706914F8011BC26B96
:100EC000384690476D1EF7D2BDE8F08100C0004063
:100ED00002E008C8121F08C1002AFAD17047704703
:100EE000002001E001C1121F002AFBD17047000061
:100EF00010B51A48FFF7B2FE1948FFF7AFFE0C21F4
:100F00001848FFF79DFC0023174C1A461946204647
:100F1000FFF7EAF900231A4619462046FFF72DFA93
:100F20006123012200212046FFF727FA00212046F5
:100F3000FFF71CFA00212046FFF7C1F91E20FFF73A
:100F40009FFCFFF7CFFC00212046FFF7B3F92046B6
:100F5000BDE810400021FFF7BAB90000003800F0EA
:100F6000040800F0004002400080034070B500F02B
:100F7000A9F80F4D4FF0807468B1012811D00228F4
:100F800015D100F023FD206A022203682846BDE83F
:100F900070400321184700F0FDFB206A032203681C
:100FA000F4E700F007F8206A01220368EEE770BD5D
:100FB00000300640F0B43D4A3D49A2F1240492EDD0
:100FC000001AD4ED001A4FF080456E4271EE610AAE
:100FD00091ED030AA2F1180010EE903AAB4203DC47
:100FE00010EE903AB3420DD9DFED320A71EE200ACD
:100FF00070EEE10A80EE801AD0ED000A71EE200A50
:10100000C0ED000A92ED021AD1ED071A94ED022A02
:1010100071EE610A70EEC20A10EE902AAA4203DC59
:1010200010EE902AB2420FD9D1ED080A71EE600A93
:1010300070EEE10A70EEC20A80EE801A90ED020AAC
:1010400031EE000A80ED020A90ED000ADFED1A1A77
:10105000B5EEC00AF1EE10FA04D89FED180A80ED43
:10106000000A06E010EE101A154A914201DBC0EDAD
:10107000001A0E4990ED020A0C39D1ED020A30EE49
:10108000E11AB4EEC10AF1EE10FA02D880ED021AAC
:1010900008E070EEA10AB4EEE00AF1EE10FA01DB0E
:1010A000C0ED020AF0BC00F063B800002403002089
:1010B00004000020000034420000B44200000000A0
:1010C0000000B4422DE9F041284A274CA2F1180053
:1010D0000125216990ED011AD0ED020A90ED000A78
:1010E00059B9B5EEC00AF1EE10FA06D082ED000A49
:1010F00082ED011AC2ED020A25611B4863690026D0
:10110000416B006B6BB188420BD0B5EEC00AF1EEBB
:1011100010FA06D082ED000A82ED011AC2ED020A31
:10112000266101290BD0012809D10706A561B86CF9
:10113000016848208847B86C01684B2088470A49F5
:10114000DC310868642808D940F6D862904204D29D
:101150004868642801D9904201D3A56200E0A662E4
:10116000206B6063BDE8F0810400002018030020BC
:101170002DE9F05F3C4F4FF07E592DED048BA7F128
:101180000C084FF4FA7697ED000AD8ED000ADFF864
:10119000DCA09FED378A70EE600A9FED369ADFED96
:1011A000369A10EE900ADFED358ADFF8D4B0354C70
:1011B00040F6C415484503DC10EE900A504520D98E
:1011C0002948243000F010FA2E48443880ED090AEE
:1011D00030EE080AC0EE090AB0EE680A00EEA90A6D
:1011E000BDEEC00A10EE100A2060B04201DC26609D
:1011F00002E0A84200DB2560402158462268FFF744
:10120000ACFBD7ED020A98ED020A30EEC00A10EEF0
:10121000100A484503DC10EE100A504520D9124848
:101220000C3090ED020A30EEC00A70EE080A80EE33
:10123000890A40EE298ABDEEE80A10EE100A6060C5
:10124000B04201DC666002E0A84200DB65606268D3
:101250005846BDEC048B4121BDE8F05FFFF77DBB34
:10126000BDEC048BBDE8F09F0C030020000080BFA4
:101270000000B442000034430000FA440000FA4386
:10128000008002404800002030B54A4A484C002304
:1012900091786054491CC8B290702178552901D0CA
:1012A000937030BD0B28FCD36478414841497A38AB
:1012B0008031503C092C3BD2DFE804F0050B1117BC
:1012C0001D23292F3500C16F5165D0F8800090652E
:1012D0002EE0C16F5166D0F88000906628E0C16FA3
:1012E0005167D0F88000906722E0C46F4C60D0F85E
:1012F000800088601CE0C46F4C61D0F88000886179
:1013000016E0C46F4C62D0F88000886210E0C46FB1
:101310004C63D0F8800088630AE0C46F4C64D0F856
:101320008000886404E0C46F4C65D0F88000886554
:10133000204993708431B1F9000000EE100A204872
:10134000F8EEC00A9FED1C0A20EE801ADFED1B0AA2
:1013500021EE201A80ED001AB1F9023001EE103AA8
:10136000B8EEC11A21EE001A21EE201A80ED011A02
:10137000B1F9041001EE101AB8EEC11A21EE000AFC
:1013800020EE200A80ED020A9069012889D10C48DC
:101390002438D0ED020AF5EEC00AF1EE10FA80D042
:1013A00030EE600A022082ED070A906130BD000035
:1013B000EE0100200400002000000038000034434B
:1013C0002403002000F00F01000900EB800001EB76
:1013D0004000704770B50A4A0025A2F13C0421780C
:1013E0005054491CC8B220701178812901D0257051
:1013F00070BD0628FCD300F037F80120E062F6E764
:101400004000002014491548FFF7B6FA144CA063B9
:1014100000F03AF900F02EFAFFF76AFD114800F0EB
:10142000BDF810482C3000F0B9F8A06B6421B0FB77
:10143000F1F0FFF7AFFCFFF72CFCFFF723FCFEF702
:10144000E9FF5B20FFF71CFAFFF74CFA022020634C
:10145000FFF78CFDFCE700000024F400800600F19B
:10146000040000203003002070B5474C494A9FED2E
:10147000473AE078464BDFED482A02F10C0590B37D
:10148000A4F13C0191ED021A1146D1ED021A9FED33
:10149000422A0C31102891ED020A70EE420A30EE19
:1014A000020A2CD00C39112891ED002A04D0122800
:1014B0001AD0132864D10CE032EE010A0BE082ED61
:1014C000003A5DE010EE100A984259DBC2ED002AA6
:1014D00056E032EE410A82ED000AB5EEC00AF1EEA6
:1014E00010FAEFD8EBE714E031EE811A09E0B4EE20
:1014F000C01AF1EE10FA43DB82ED020A40E031EE51
:10150000C11A82ED021AB4EEE01AF1EE10FA35D9E2
:10151000EDE76078FFF756FF00EE100AB8EEC00A5C
:1015200082ED000AA078FFF74DFF00EE100AB8EE3A
:10153000C00A82ED020AD2ED000AF5EEC00AF1EE11
:1015400010FA02D882ED003A05E010EE900A9842B7
:1015500001DBC2ED002AD5ED020A30EEE21AB4EE4C
:10156000C10AF1EE10FA02D882ED021A08E070EE1C
:10157000A20AB4EEE00AF1EE10FA01DBC2ED020AB3
:10158000BDE87040FFF7F4BD4000002000000000FF
:101590000000B4420C0300200000B4429FED0F0A8B
:1015A000F6EE000A80ED030A80ED040A80ED050ADC
:1015B00080ED060A80ED070A80ED080AC0ED000AFA
:1015C00080ED010A80ED020A9FED050A80ED090A0F
:1015D0009FED040A80ED0A0A704700000000000039
:1015E0000000B4420000B4C280ED030A90ED041A7A
:1015F000234A30EE410A80ED050AD0ED080A70EE6C
:10160000800A10EE901AC0ED080A914202D3FBEE58
:101610000E0A06E010EE901A1A4A914203DBF3EE2E
:101620000E0AC0ED080AD0ED000AD0ED011A90EDC7
:10163000082A60EE800A41EE820AD0ED061A90ED8B
:10164000022A70EE611A42EE210AC0ED070A80ED0F
:10165000060A31EE200A80ED040AD0ED0A0AB4EE43
:10166000E00AF1EE10FA06D9D0ED090AB4EEE00A6C
:10167000F1EE10FA01DBC0ED040A90ED040A7047A8
:101680000000F0C10000F04170B53A48FFF7E6FAFB
:101690003948FFF7E3FA3948FFF7B0F83848FFF761
:1016A000ADF83848FFF7AAF83748FFF7A7F8374CE6
:1016B00001212046FFF7D2F802212046FFF7CEF89D
:1016C00004212046FFF7CAF808212046FFF7C6F894
:1016D0002F4C40F203112046FFF70BF90222402164
:1016E0002046FFF70FF9022280212046FFF70AF972
:1016F00044F620652A4640212046FFF71CF92A4679
:1017000080212046FFF717F940F2DC552A46402198
:101710002046FFF722F92A4641212046FFF71DF90E
:101720004FF47A752A4682212046FFF716F92A4699
:1017300083212046FFF711F9012211462046FFF7C9
:1017400004F9012202212046FFF7FFF801220421BB
:101750002046FFF7FAF8012208212046FFF7F5F8A6
:1017600040212046FFF7E2F82046BDE87040802186
:10177000FFF7DCB8004000F0050800F006000500A7
:101780000604050006080500060C0500005002408E
:10179000008002402F4A30B4A2F1180392ED000AF3
:1017A000D3ED000A2C4830EE600AD0ED030AA2F116
:1017B0000C0010EE101AB1F1804F04DC10EE101A7C
:1017C000B1F1404F07D980EE201A90ED000A31EEBA
:1017D000000A80ED000A214C0168DFED211AA142C8
:1017E00004D39FED200A80ED000A04E01E4CA142C4
:1017F00001DBC0ED001A92ED021A93ED020A1B4ABA
:1018000031EE400A10EE101A914207DC10EE101A69
:10181000174A914202D890ED020A07E080EE202A92
:1018200090ED020A32EE000A80ED020A71EE610AC2
:10183000B4EEE00AF1EE10FA06D971EE210AB4EE28
:10184000E00AF1EE10FA01DBC0ED020A30BCFFF74E
:101850008FBC000018030020040000200000B4C268
:101860000000B4420000B4C20000B4420000A04036
:101870000000A0C02DE9F0414FF08074606C8169D8
:1018800043488847206A0121C26B42489047606CF8
:10189000816941488847606C81693F48C01C88471E
:1018A000606C81693C48C01E8847606C816938481B
:1018B0000C388847606C81693548401C8847A06CAB
:1018C000406880470120FEF799FF40F20140FEF793
:1018D00095FF206A4FF040250321426D284690472E
:1018E00041F20100FEF78AFF41F20140FEF786FF58
:1018F000206A3021426D284690472848FEF77EFF37
:101900002748FEF77BFF206A0321426D2548904758
:101910006069254DDFF894804FF4E1364769602314
:10192000324640462968B8476069214F6023D0F8A5
:1019300014C0324638462968E047606929681D4D61
:10194000D0F814C0602332462846E047A06C0168F6
:1019500015208847A06C016848208847A06C016862
:101960004B20884760695021426C4046904760692F
:101970001021426C3846904760691021426C28461D
:101980009047BDE8F04110210BA0FFF78DBA000091
:101990000C0800F000400640031800F001000D00A4
:1019A00001040D00005006403C00002000C0004033
:1019B00000F00040002001401B5B324A456E746518
:1019C0007220746578743A20000000002A4A40F6BC
:1019D000D863A2F1DC00116890ED010A2748642960
:1019E000D0ED000A02D870EEC00A03E0994203D39A
:1019F00070EE800AC0ED000A5168204A6429D2EDD9
:101A0000020A02D830EEC00A03E0994203D330EE56
:101A1000800A80ED020A90ED000ADFED191AB5EE9A
:101A2000C00AF1EE10FA04D89FED160A80ED000A04
:101A300006E010EE101A144A914201DBC0ED001AC4
:101A40000E4990ED020A0C31D1ED020A30EEE11A96
:101A5000B4EEC10AF1EE10FA02D880ED021A08E0E5
:101A600070EEA10AB4EEE00AF1EE10FA01DBC0ED6F
:101A7000020AFFF77DBB0000E00000200C030020FD
:101A80000000B442000000000000B44200400040EA
:101A900010000000008005401000000000500040D1
:101AA000110000000090054011000000006000409F
:101AB0001200000000A0054012000000007000406D
:101AC0001300000000B00540130000000040024079
:101AD0001400000000C00540140000000050024047
:101AE0002E00000000D005402E00000000600240E3
:101AF0002F00000000E005402F00000000700240B1
:101B00003000000000F005403000000000D003402D
:101B1000460000000000064046000000001006409D
:101B2000470000000020064048000000003006404A
:101B30007F0000000040064080000000005006408A
:101B400084000000006006408C000000004000405F
:101B50001000000000800540100000000050004010
:101B600011000000009005401100000000600040DE
:101B70001200000000A005401200000000700040AC
:101B80001300000000B005401300000000400240B8
:101B90001400000000C00540140000000050024086
:101BA0002E00000000D005402E0000000060024022
:101BB0002F00000000E005402F00000000700240F0
:101BC0003000000000F005403000000000D003406D
:101BD00043000000000006404300000000100640E3
:101BE0004400000000200640450000000030064090
:101BF0005800000000400640590000000050064018
:101C00005C000000006006406400000000700640B8
:101C10006C000000008006406D000000009006404F
:101C20007F00000000400040008005400050004060
:101C3000009005400060004000A00540007000409A
:101C400000B005400040024000C005400050024086
:101C500000D005400060024000E0054000700240F6
:101C600000F0054000D00340000006400010064090
:101C700000100640002006400020064000300640CC
:101C8000003006400040064000400640005006403C
:101C900000500640006006400060064000700640AC
:101CA000007006400080064000800640009006401C
:101CB000009006400007000000060000000500003C
:101CC000000400000003000000020000000100000A
:101CD000000000000000000018ED00E01CED00E036
:101CE00020ED00E000E400E004E400E008E400E0AF
:101CF0000CE400E010E400E014E400E018E400E08C
:101D00001CE400E020E400E024E400E028E400E03B
:101D10002CE400E030E400E034E400E038E400E0EB
:101D20003CE400E040E400E044E400E048E400E09B
:101D30004CE400E050E400E054E400E058E400E04B
:101D40005CE400E060E400E064E400E068E400E0FB
:101D50006CE400E070E400E074E400E078E400E0AB
:101D60007CE400E080E400E084E400E088E400E05B
:101D700000E100E004E100E008E100E00CE100E047
:101D800010E100E080E100E084E100E088E100E0B3
:101D90008CE100E090E100E000E200E004E200E01D
:101DA00008E200E00CE200E010E200E080E200E087
:101DB00084E200E088E200E08CE200E090E200E0F3
:101DC00000688909001C4E0E40420F0000201C00D4
:101DD00080841E0000802500999E36000040380057
:101DE00000093D0000803E0000004B00404B4C00CD
:101DF00000204E00808D5B0000C05D000080700000
:101E000000127A0000007D0080969800001BB70049
:101E10000080BB00C0E8CE00647ADA000024F40041
:101E20000000FA0080A81201002D310100366E0179
:101E300040787D014000000000000000000100002B
:101E40003E0008000000000000010000A0000000AB
:101E500002000000000100003454010000000000F6
:101E6000000100002B7006000000000000010000CF
:101E70002800000000000000000100002700010011
:101E80000000000000010000200000000000000031
:101E900000010000500000000200000000010000EE
:101EA0001AAC0000000000000001000017940900B7
:101EB000000000000001000016980500000000006E
:101EC00000010000140000000000000000010000FC
:101ED000138008000000000000010000A0000000C6
:101EE00008000000000100001000000000000000D9
:101EF00000010000280000000200000000010000B6
:101F0000400000000400000000010000600000002C
:101F100000000000000100005D000C000000000057
:101F2000000100005000000000000000000100005F
:101F30004E000200000000000001000041AC010062
:101F400000000000000100003C0000000000000054
:101F5000000100003A8009000000000000010000BC
:101F60003000000000000000000100002800000018
:101F70000000000000010000270001000000000038
:101F800000010000236006000000000000010000C6
:101F90002160080000000000000100001E00000099
:101FA00000000000000100001DC00400000000004F
:101FB00000010000500000000200000000010000CD
:101FC00018000000000000000001000014000000E4
:101FD000000000000001000060000000040000009C
:101FE000000100000024F40030003000005A6202BA
:101FF0009100910000879303D200D20000B4C40482
:102000001301130100E1F50554015401000E2707E7
:10201000950195013420000000000020F40000002C
:10202000D00E000028210000F4000020AC030000C6
:10203000E00E00000000000000000000A69BC43B72
:102040000000F0410000FA45000000000000000020
:10205000010000000000000000000000000000007F
:102060000000000000000000000000000000000070
:10207000000000000000000000000000DC0500007F
:10208000DC0500000000000000000000000000006F
:102090000000000000000000000000000000000040
:1020A0000000000000000000000000000000000030
:1020B0000000000000000000000000000000000020
:1020C0000000000000000000000000000000000010
:1020D0000000000000000000000000000000000000
:1020E00000000000000000000000000000000000F0
:1020F00000000000000000000000000000000000E0
:1021000000000000000000000000000000000000CF
:1021100000000000000000000000000000000000BF
:082120000000000003000000B4
:0400000500000201F4
:00000001FF
